{
  "contractName": "Auction",
  "abi": [
    {
      "inputs": [],
      "stateMutability": "nonpayable",
      "type": "constructor"
    },
    {
      "inputs": [],
      "name": "highestBidAmount",
      "outputs": [
        {
          "internalType": "uint256",
          "name": "",
          "type": "uint256"
        }
      ],
      "stateMutability": "view",
      "type": "function"
    },
    {
      "inputs": [],
      "name": "highestBidder",
      "outputs": [
        {
          "internalType": "address",
          "name": "",
          "type": "address"
        }
      ],
      "stateMutability": "view",
      "type": "function"
    },
    {
      "inputs": [],
      "name": "putBid",
      "outputs": [],
      "stateMutability": "payable",
      "type": "function"
    },
    {
      "inputs": [
        {
          "internalType": "address",
          "name": "_address",
          "type": "address"
        }
      ],
      "name": "getBiddersBid",
      "outputs": [
        {
          "internalType": "uint256",
          "name": "",
          "type": "uint256"
        }
      ],
      "stateMutability": "view",
      "type": "function"
    },
    {
      "inputs": [],
      "name": "getHighestBid",
      "outputs": [
        {
          "internalType": "uint256",
          "name": "",
          "type": "uint256"
        }
      ],
      "stateMutability": "view",
      "type": "function"
    },
    {
      "inputs": [],
      "name": "getHighestBidder",
      "outputs": [
        {
          "internalType": "address",
          "name": "",
          "type": "address"
        }
      ],
      "stateMutability": "view",
      "type": "function"
    },
    {
      "inputs": [
        {
          "internalType": "uint256",
          "name": "_endTime",
          "type": "uint256"
        }
      ],
      "name": "putEndTime",
      "outputs": [],
      "stateMutability": "nonpayable",
      "type": "function"
    },
    {
      "inputs": [],
      "name": "endAuction",
      "outputs": [],
      "stateMutability": "nonpayable",
      "type": "function"
    },
    {
      "inputs": [
        {
          "internalType": "address payable",
          "name": "_address",
          "type": "address"
        }
      ],
      "name": "withdrawBid",
      "outputs": [],
      "stateMutability": "nonpayable",
      "type": "function"
    }
  ],
  "bytecode": "0x6080604052426004556000600660006101000a81548160ff02191690831515021790555034801561002f57600080fd5b5033600360006101000a81548173ffffffffffffffffffffffffffffffffffffffff021916908373ffffffffffffffffffffffffffffffffffffffff1602179055506109c1806100806000396000f3fe6080604052600436106100855760003560e01c80637f6a9d50116100595780637f6a9d50146101465780638f9b48741461016f57806391f901571461019a578063f5cc772a146101c5578063fe67a54b146101cf57610085565b80623495a41461008a578063058f4629146100b55780634979440a146100f25780634ede36481461011d575b600080fd5b34801561009657600080fd5b5061009f6101e6565b6040516100ac919061061a565b60405180910390f35b3480156100c157600080fd5b506100dc60048036038101906100d79190610666565b610210565b6040516100e991906106ac565b60405180910390f35b3480156100fe57600080fd5b50610107610258565b60405161011491906106ac565b60405180910390f35b34801561012957600080fd5b50610144600480360381019061013f9190610705565b610262565b005b34801561015257600080fd5b5061016d6004803603810190610168919061075e565b610332565b005b34801561017b57600080fd5b5061018461033c565b60405161019191906106ac565b60405180910390f35b3480156101a657600080fd5b506101af610342565b6040516101bc919061061a565b60405180910390f35b6101cd610368565b005b3480156101db57600080fd5b506101e4610566565b005b6000600260009054906101000a900473ffffffffffffffffffffffffffffffffffffffff16905090565b60008060008373ffffffffffffffffffffffffffffffffffffffff1673ffffffffffffffffffffffffffffffffffffffff168152602001908152602001600020549050919050565b6000600154905090565b60008060008373ffffffffffffffffffffffffffffffffffffffff1673ffffffffffffffffffffffffffffffffffffffff16815260200190815260200160002054111561032f578073ffffffffffffffffffffffffffffffffffffffff166108fc6000808473ffffffffffffffffffffffffffffffffffffffff1673ffffffffffffffffffffffffffffffffffffffff168152602001908152602001600020549081150290604051600060405180830381858888f1935050505015801561032d573d6000803e3d6000fd5b505b50565b8060058190555050565b60015481565b600260009054906101000a900473ffffffffffffffffffffffffffffffffffffffff1681565b600034116103ab576040517f08c379a00000000000000000000000000000000000000000000000000000000081526004016103a2906107e8565b60405180910390fd5b60011515600660009054906101000a900460ff16151514610401576040517f08c379a00000000000000000000000000000000000000000000000000000000081526004016103f890610854565b60405180910390fd5b600554421115610446576040517f08c379a000000000000000000000000000000000000000000000000000000000815260040161043d90610854565b60405180910390fd5b6000346000803373ffffffffffffffffffffffffffffffffffffffff1673ffffffffffffffffffffffffffffffffffffffff1681526020019081526020016000205461049291906108a3565b905060015481116104d8576040517f08c379a00000000000000000000000000000000000000000000000000000000081526004016104cf9061096b565b60405180910390fd5b806000803373ffffffffffffffffffffffffffffffffffffffff1673ffffffffffffffffffffffffffffffffffffffff168152602001908152602001600020819055508060018190555033600260006101000a81548173ffffffffffffffffffffffffffffffffffffffff021916908373ffffffffffffffffffffffffffffffffffffffff16021790555050565b600360009054906101000a900473ffffffffffffffffffffffffffffffffffffffff1673ffffffffffffffffffffffffffffffffffffffff163373ffffffffffffffffffffffffffffffffffffffff16036105d7576001600660006101000a81548160ff0219169083151502179055505b565b600073ffffffffffffffffffffffffffffffffffffffff82169050919050565b6000610604826105d9565b9050919050565b610614816105f9565b82525050565b600060208201905061062f600083018461060b565b92915050565b600080fd5b610643816105f9565b811461064e57600080fd5b50565b6000813590506106608161063a565b92915050565b60006020828403121561067c5761067b610635565b5b600061068a84828501610651565b91505092915050565b6000819050919050565b6106a681610693565b82525050565b60006020820190506106c1600083018461069d565b92915050565b60006106d2826105d9565b9050919050565b6106e2816106c7565b81146106ed57600080fd5b50565b6000813590506106ff816106d9565b92915050565b60006020828403121561071b5761071a610635565b5b6000610729848285016106f0565b91505092915050565b61073b81610693565b811461074657600080fd5b50565b60008135905061075881610732565b92915050565b60006020828403121561077457610773610635565b5b600061078284828501610749565b91505092915050565b600082825260208201905092915050565b7f4164642074686520616d6f756e74206265666f72652074686520426964000000600082015250565b60006107d2601d8361078b565b91506107dd8261079c565b602082019050919050565b60006020820190508181036000830152610801816107c5565b9050919050565b7f41756374696f6e20697320456e64656400000000000000000000000000000000600082015250565b600061083e60108361078b565b915061084982610808565b602082019050919050565b6000602082019050818103600083015261086d81610831565b9050919050565b7f4e487b7100000000000000000000000000000000000000000000000000000000600052601160045260246000fd5b60006108ae82610693565b91506108b983610693565b9250827fffffffffffffffffffffffffffffffffffffffffffffffffffffffffffffffff038211156108ee576108ed610874565b5b828201905092915050565b7f426964206d75737420626520686967686572207468616e20746865206375727260008201527f656e742068696768657374206269640000000000000000000000000000000000602082015250565b6000610955602f8361078b565b9150610960826108f9565b604082019050919050565b6000602082019050818103600083015261098481610948565b905091905056fea2646970667358221220abdf19d27bf9c3a1619a5bc65527c098b83a45f54751ad09c98c4eb7d841525164736f6c634300080d0033",
  "immutableReferences": {},
  "source": "// SPDX-License-Identifier: MIT\r\npragma solidity >0.4.0 <0.9.0;\r\n\r\ncontract Auction {\r\n    mapping(address => uint) biddersData;\r\n    uint public highestBidAmount;\r\n    address public highestBidder;\r\n    address owner;\r\n    uint startTime=block.timestamp;\r\n    uint endTime;\r\n    bool auctionEnded=false;\r\n        constructor(){\r\n            owner=msg.sender;\r\n        }\r\n\r\n    // put new bid\r\n    function putBid() public payable {\r\n        // Verify value is greater than zero\r\n        require(msg.value > 0, \"Add the amount before the Bid\");\r\n        // Check Session is Not ended\r\n        require(auctionEnded==true,\"Auction is Ended\");\r\n        require(block.timestamp<=endTime,\"Auction is Ended\");\r\n\r\n        // Calculate the new bid amount\r\n        uint calculateAmount = biddersData[msg.sender] + msg.value;\r\n\r\n        // Check if the new bid amount is higher than the current highest bid\r\n        require(calculateAmount > highestBidAmount, \"Bid must be higher than the current highest bid\");\r\n        \r\n        // Update bid amount, highest bid amount, and highest bidder\r\n        biddersData[msg.sender] = calculateAmount;\r\n        highestBidAmount = calculateAmount;\r\n        highestBidder = msg.sender;\r\n    }\r\n\r\n    // Get a specific bidder's bid amount\r\n    function getBiddersBid(address _address) public view returns (uint) {\r\n        return biddersData[_address];\r\n    }\r\n\r\n    // Get the highest bid amount\r\n    function getHighestBid() public view returns (uint) {\r\n        return highestBidAmount;\r\n    }\r\n\r\n    // Get the address of the highest bidder\r\n    function getHighestBidder() public view returns (address) {\r\n        return highestBidder;\r\n    }\r\n\r\n    //put endtime\r\n    function putEndTime(uint _endTime) public{\r\n        endTime=_endTime;\r\n\r\n    }\r\n\r\n    //put endTime\r\n    function endAuction() public {\r\n        if(msg.sender==owner){\r\n            auctionEnded=true;\r\n        }\r\n    }\r\n    \r\n    //withdraw bid\r\n    function withdrawBid(address payable  _address) public {\r\n    if(biddersData[_address]>0){\r\n        _address.transfer(biddersData[_address]);\r\n    }\r\n\r\n     }\r\n    \r\n}\r\n",
  "sourcePath": "C:\\Users\\oamba\\OneDrive\\\\Auction\\contracts\\Auction.sol",
  "compiler": {
    "name": "solc",
    "version": "0.8.13+commit.abaa5c0e.Emscripten.clang"
  },
  "schemaVersion": "3.4.16",
  "updatedAt": "2023-12-12T07:36:17.812Z",
  "devdoc": {
    "kind": "dev",
    "methods": {},
    "version": 1
  },
  "userdoc": {
    "kind": "user",
    "methods": {},
    "version": 1
  }
}